{
  "contractName": "List",
  "abi": [
    {
      "inputs": [],
      "payable": false,
      "stateMutability": "nonpayable",
      "type": "constructor",
      "signature": "constructor"
    },
    {
      "anonymous": false,
      "inputs": [
        {
          "indexed": true,
          "internalType": "uint256",
          "name": "_patientId",
          "type": "uint256"
        }
      ],
      "name": "dereportEvent",
      "type": "event",
      "signature": "0x57d84d1d65d19fb49eec964745583c57e9c2acdf78da14d611c504cc6ed7f5dc"
    },
    {
      "anonymous": false,
      "inputs": [
        {
          "indexed": true,
          "internalType": "uint256",
          "name": "_patientId",
          "type": "uint256"
        }
      ],
      "name": "newPatient",
      "type": "event",
      "signature": "0xc853d7753eaaf697aebe0e7ee1c63d6fbfd8e24b16579fae4ea3493e48a6de17"
    },
    {
      "anonymous": false,
      "inputs": [
        {
          "indexed": true,
          "internalType": "uint256",
          "name": "_patientId",
          "type": "uint256"
        }
      ],
      "name": "reportEvent",
      "type": "event",
      "signature": "0xb9b3aa24c9fa3c578c5631dbb78fd827a504e0f46edc8c13e09ff5067881fd00"
    },
    {
      "constant": true,
      "inputs": [],
      "name": "activeCount",
      "outputs": [
        {
          "internalType": "uint256",
          "name": "",
          "type": "uint256"
        }
      ],
      "payable": false,
      "stateMutability": "view",
      "type": "function",
      "signature": "0x4331ed1f"
    },
    {
      "constant": true,
      "inputs": [
        {
          "internalType": "address",
          "name": "",
          "type": "address"
        }
      ],
      "name": "dereporter",
      "outputs": [
        {
          "internalType": "bool",
          "name": "",
          "type": "bool"
        }
      ],
      "payable": false,
      "stateMutability": "view",
      "type": "function",
      "signature": "0x1749119a"
    },
    {
      "constant": true,
      "inputs": [
        {
          "internalType": "uint256",
          "name": "",
          "type": "uint256"
        }
      ],
      "name": "patient",
      "outputs": [
        {
          "internalType": "uint256",
          "name": "X",
          "type": "uint256"
        },
        {
          "internalType": "string",
          "name": "id",
          "type": "string"
        },
        {
          "internalType": "string",
          "name": "name",
          "type": "string"
        },
        {
          "internalType": "uint256",
          "name": "status",
          "type": "uint256"
        }
      ],
      "payable": false,
      "stateMutability": "view",
      "type": "function",
      "signature": "0x74607d91"
    },
    {
      "constant": true,
      "inputs": [],
      "name": "patientCount",
      "outputs": [
        {
          "internalType": "uint256",
          "name": "",
          "type": "uint256"
        }
      ],
      "payable": false,
      "stateMutability": "view",
      "type": "function",
      "signature": "0xa0303c41"
    },
    {
      "constant": true,
      "inputs": [],
      "name": "positiveCount",
      "outputs": [
        {
          "internalType": "uint256",
          "name": "",
          "type": "uint256"
        }
      ],
      "payable": false,
      "stateMutability": "view",
      "type": "function",
      "signature": "0xaf59929c"
    },
    {
      "constant": true,
      "inputs": [
        {
          "internalType": "address",
          "name": "",
          "type": "address"
        }
      ],
      "name": "reporter",
      "outputs": [
        {
          "internalType": "bool",
          "name": "",
          "type": "bool"
        }
      ],
      "payable": false,
      "stateMutability": "view",
      "type": "function",
      "signature": "0x00f893a8"
    },
    {
      "constant": false,
      "inputs": [
        {
          "internalType": "string",
          "name": "_name",
          "type": "string"
        },
        {
          "internalType": "string",
          "name": "_ID",
          "type": "string"
        }
      ],
      "name": "addPatient",
      "outputs": [],
      "payable": false,
      "stateMutability": "nonpayable",
      "type": "function",
      "signature": "0x239ee6c1"
    },
    {
      "constant": false,
      "inputs": [
        {
          "internalType": "uint256",
          "name": "_patientId",
          "type": "uint256"
        }
      ],
      "name": "report",
      "outputs": [],
      "payable": false,
      "stateMutability": "nonpayable",
      "type": "function",
      "signature": "0x969b1cdb"
    },
    {
      "constant": false,
      "inputs": [
        {
          "internalType": "uint256",
          "name": "_patientId",
          "type": "uint256"
        }
      ],
      "name": "dereport",
      "outputs": [],
      "payable": false,
      "stateMutability": "nonpayable",
      "type": "function",
      "signature": "0x93a14f2c"
    }
  ],
  "bytecode": "0x60806040526000600455600060055534801561001a57600080fd5b506109998061002a6000396000f3fe608060405234801561001057600080fd5b50600436106100925760003560e01c806374607d911161006657806374607d91146102bf57806393a14f2c146103e0578063969b1cdb1461040e578063a0303c411461043c578063af59929c1461045a57610092565b8062f893a8146100975780631749119a146100f3578063239ee6c11461014f5780634331ed1f146102a1575b600080fd5b6100d9600480360360208110156100ad57600080fd5b81019080803573ffffffffffffffffffffffffffffffffffffffff169060200190929190505050610478565b604051808215151515815260200191505060405180910390f35b6101356004803603602081101561010957600080fd5b81019080803573ffffffffffffffffffffffffffffffffffffffff169060200190929190505050610498565b604051808215151515815260200191505060405180910390f35b61029f6004803603604081101561016557600080fd5b810190808035906020019064010000000081111561018257600080fd5b82018360208201111561019457600080fd5b803590602001918460018302840111640100000000831117156101b657600080fd5b91908080601f016020809104026020016040519081016040528093929190818152602001838380828437600081840152601f19601f8201169050808301925050505050505091929192908035906020019064010000000081111561021957600080fd5b82018360208201111561022b57600080fd5b8035906020019184600183028401116401000000008311171561024d57600080fd5b91908080601f016020809104026020016040519081016040528093929190818152602001838380828437600081840152601f19601f8201169050808301925050505050505091929192905050506104b8565b005b6102a9610587565b6040518082815260200191505060405180910390f35b6102eb600480360360208110156102d557600080fd5b810190808035906020019092919050505061058d565b604051808581526020018060200180602001848152602001838103835286818151815260200191508051906020019080838360005b8381101561033b578082015181840152602081019050610320565b50505050905090810190601f1680156103685780820380516001836020036101000a031916815260200191505b50838103825285818151815260200191508051906020019080838360005b838110156103a1578082015181840152602081019050610386565b50505050905090810190601f1680156103ce5780820380516001836020036101000a031916815260200191505b50965050505050505060405180910390f35b61040c600480360360208110156103f657600080fd5b81019080803590602001909291905050506106ed565b005b61043a6004803603602081101561042457600080fd5b81019080803590602001909291905050506107e2565b005b6104446108b3565b6040518082815260200191505060405180910390f35b6104626108b9565b6040518082815260200191505060405180910390f35b60006020528060005260406000206000915054906101000a900460ff1681565b60016020528060005260406000206000915054906101000a900460ff1681565b6003600081548092919060010191905055506040518060800160405280600354815260200182815260200183815260200160008152506002600060035481526020019081526020016000206000820151816000015560208201518160010190805190602001906105299291906108bf565b5060408201518160020190805190602001906105469291906108bf565b50606082015181600301559050506003547fc853d7753eaaf697aebe0e7ee1c63d6fbfd8e24b16579fae4ea3493e48a6de1760405160405180910390a25050565b60055481565b6002602052806000526040600020600091509050806000015490806001018054600181600116156101000203166002900480601f01602080910402602001604051908101604052809291908181526020018280546001816001161561010002031660029004801561063f5780601f106106145761010080835404028352916020019161063f565b820191906000526020600020905b81548152906001019060200180831161062257829003601f168201915b505050505090806002018054600181600116156101000203166002900480601f0160208091040260200160405190810160405280929190818152602001828054600181600116156101000203166002900480156106dd5780601f106106b2576101008083540402835291602001916106dd565b820191906000526020600020905b8154815290600101906020018083116106c057829003601f168201915b5050505050908060030154905084565b60006001905060018060003373ffffffffffffffffffffffffffffffffffffffff1673ffffffffffffffffffffffffffffffffffffffff16815260200190815260200160002060006101000a81548160ff021916908315150217905550600060026000848152602001908152602001600020600301541461076d57600090505b60026000838152602001908152602001600020600301600081548092919060019003919050555060008114156107b157600560008154809291906001900391905055505b817f57d84d1d65d19fb49eec964745583c57e9c2acdf78da14d611c504cc6ed7f5dc60405160405180910390a25050565b60016000803373ffffffffffffffffffffffffffffffffffffffff1673ffffffffffffffffffffffffffffffffffffffff16815260200190815260200160002060006101000a81548160ff0219169083151502179055506002600082815260200190815260200160002060030160008154809291906001019190505550600460008154809291906001019190505550600560008154809291906001019190505550807fb9b3aa24c9fa3c578c5631dbb78fd827a504e0f46edc8c13e09ff5067881fd0060405160405180910390a250565b60035481565b60045481565b828054600181600116156101000203166002900490600052602060002090601f016020900481019282601f1061090057805160ff191683800117855561092e565b8280016001018555821561092e579182015b8281111561092d578251825591602001919060010190610912565b5b50905061093b919061093f565b5090565b61096191905b8082111561095d576000816000905550600101610945565b5090565b9056fea265627a7a72315820897e9a045164e335372830468e2930c6ea577e1428cd4a40929828136c32e02964736f6c63430005100032",
  "source": "pragma solidity ^0.5.0;\n\ncontract List {\n    // Model a Candidate\n    struct Patient {\n        uint X;\n        string id;\n        string name;\n        uint status;\n    }\n\n    // Store accounts that have voted\n    mapping(address => bool) public reporter;\n    // Store Candidates\n    mapping(address => bool) public dereporter;\n    // Fetch Candidate\n    mapping(uint => Patient) public patient;\n    // Store Candidates Count\n    uint public patientCount;\n    uint public positiveCount = 0;\n    uint public activeCount = 0;\n\n    // voted event\n    event reportEvent (\n        uint indexed _patientId\n    );\n    \n    event dereportEvent (\n        uint indexed _patientId\n    );\n    \n    event newPatient (\n        uint indexed _patientId\n    );\n\n    constructor() public {\n    }\n\n    function addPatient (string memory _name, string memory _ID) public {\n        patientCount ++;\n        patient[patientCount] = Patient(patientCount, _ID, _name, 0);\n        emit newPatient(patientCount);\n    }\n\n    function report (uint _patientId) public {\n        \n        // record that voter has voted\n        reporter[msg.sender] = true;\n\n        // update candidate vote Count\n        patient[_patientId].status ++;\n        positiveCount ++;\n        activeCount ++;\n        // trigger voted event\n        emit reportEvent(_patientId);\n    }\n    \n    function dereport (uint _patientId) public {\n        uint a = 1;\n        dereporter[msg.sender] = true;\n        if (patient[_patientId].status != 0)\n        {a=0;}\n        patient[_patientId].status --;\n        if(a==0)\n        {activeCount --;}\n        emit dereportEvent(_patientId);\n    }\n    \n}\n",
  "sourcePath": "/home/firethrone/Projects/Covid blockchain/contracts/List.sol",
  "compiler": {
    "name": "solc",
    "version": "0.5.16+commit.9c3226ce.Emscripten.clang"
  },
  "schemaVersion": "3.0.8",
  "updatedAt": "2020-08-27T10:13:59.957Z",
  "devdoc": {
    "methods": {}
  },
  "userdoc": {
    "methods": {}
  }
}